{
  "address": "0xeb0BCF27D1Fb4b25e708fBB815c421Aeb51eA9fc",
  "abi": [
    {
      "inputs": [
        {
          "internalType": "contract ILayerZeroEndpoint",
          "name": "_lzEndpoint",
          "type": "address"
        }
      ],
      "stateMutability": "nonpayable",
      "type": "constructor"
    },
    {
      "anonymous": false,
      "inputs": [
        {
          "indexed": true,
          "internalType": "uint64",
          "name": "nonce",
          "type": "uint64"
        },
        {
          "indexed": false,
          "internalType": "bytes32",
          "name": "executionHash",
          "type": "bytes32"
        }
      ],
      "name": "ClearPayload",
      "type": "event"
    },
    {
      "anonymous": false,
      "inputs": [
        {
          "indexed": true,
          "internalType": "uint16",
          "name": "remoteChainId",
          "type": "uint16"
        },
        {
          "indexed": false,
          "internalType": "bytes",
          "name": "payload",
          "type": "bytes"
        }
      ],
      "name": "ExecuteRemoteProposal",
      "type": "event"
    },
    {
      "anonymous": false,
      "inputs": [
        {
          "indexed": true,
          "internalType": "address",
          "name": "previousOwner",
          "type": "address"
        },
        {
          "indexed": true,
          "internalType": "address",
          "name": "newOwner",
          "type": "address"
        }
      ],
      "name": "OwnershipTransferred",
      "type": "event"
    },
    {
      "anonymous": false,
      "inputs": [
        {
          "indexed": false,
          "internalType": "uint16",
          "name": "remoteChainId",
          "type": "uint16"
        },
        {
          "indexed": false,
          "internalType": "bytes",
          "name": "remoteAddress",
          "type": "bytes"
        }
      ],
      "name": "SetTrustedRemoteAddress",
      "type": "event"
    },
    {
      "anonymous": false,
      "inputs": [
        {
          "indexed": true,
          "internalType": "uint64",
          "name": "nonce",
          "type": "uint64"
        },
        {
          "indexed": true,
          "internalType": "uint16",
          "name": "remoteChainId",
          "type": "uint16"
        },
        {
          "indexed": false,
          "internalType": "bytes",
          "name": "payload",
          "type": "bytes"
        },
        {
          "indexed": false,
          "internalType": "bytes",
          "name": "adapterParams",
          "type": "bytes"
        },
        {
          "indexed": false,
          "internalType": "uint256",
          "name": "value",
          "type": "uint256"
        },
        {
          "indexed": false,
          "internalType": "bytes",
          "name": "reason",
          "type": "bytes"
        }
      ],
      "name": "StorePayload",
      "type": "event"
    },
    {
      "inputs": [
        {
          "internalType": "uint16",
          "name": "remoteChainId",
          "type": "uint16"
        },
        {
          "internalType": "bytes",
          "name": "payload",
          "type": "bytes"
        },
        {
          "internalType": "bytes",
          "name": "adapterParams",
          "type": "bytes"
        }
      ],
      "name": "estimateFees",
      "outputs": [
        {
          "internalType": "uint256",
          "name": "nativeFee",
          "type": "uint256"
        },
        {
          "internalType": "uint256",
          "name": "zroFee",
          "type": "uint256"
        }
      ],
      "stateMutability": "view",
      "type": "function"
    },
    {
      "inputs": [
        {
          "internalType": "uint16",
          "name": "remoteChainId",
          "type": "uint16"
        },
        {
          "internalType": "bytes",
          "name": "payload",
          "type": "bytes"
        },
        {
          "internalType": "bytes",
          "name": "adapterParams",
          "type": "bytes"
        }
      ],
      "name": "execute",
      "outputs": [],
      "stateMutability": "payable",
      "type": "function"
    },
    {
      "inputs": [
        {
          "internalType": "uint16",
          "name": "version",
          "type": "uint16"
        },
        {
          "internalType": "uint16",
          "name": "chainId",
          "type": "uint16"
        },
        {
          "internalType": "uint256",
          "name": "configType",
          "type": "uint256"
        }
      ],
      "name": "getConfig",
      "outputs": [
        {
          "internalType": "bytes",
          "name": "",
          "type": "bytes"
        }
      ],
      "stateMutability": "view",
      "type": "function"
    },
    {
      "inputs": [],
      "name": "lastStoredPayloadNonce",
      "outputs": [
        {
          "internalType": "uint64",
          "name": "",
          "type": "uint64"
        }
      ],
      "stateMutability": "view",
      "type": "function"
    },
    {
      "inputs": [],
      "name": "lzEndpoint",
      "outputs": [
        {
          "internalType": "contract ILayerZeroEndpoint",
          "name": "",
          "type": "address"
        }
      ],
      "stateMutability": "view",
      "type": "function"
    },
    {
      "inputs": [],
      "name": "owner",
      "outputs": [
        {
          "internalType": "address",
          "name": "",
          "type": "address"
        }
      ],
      "stateMutability": "view",
      "type": "function"
    },
    {
      "inputs": [],
      "name": "renounceOwnership",
      "outputs": [],
      "stateMutability": "nonpayable",
      "type": "function"
    },
    {
      "inputs": [
        {
          "internalType": "uint64",
          "name": "nonce",
          "type": "uint64"
        },
        {
          "internalType": "uint16",
          "name": "remoteChainId",
          "type": "uint16"
        },
        {
          "internalType": "bytes",
          "name": "payload",
          "type": "bytes"
        },
        {
          "internalType": "bytes",
          "name": "adapterParams",
          "type": "bytes"
        },
        {
          "internalType": "uint256",
          "name": "originalValue",
          "type": "uint256"
        }
      ],
      "name": "retryExecute",
      "outputs": [],
      "stateMutability": "payable",
      "type": "function"
    },
    {
      "inputs": [
        {
          "internalType": "uint16",
          "name": "version",
          "type": "uint16"
        },
        {
          "internalType": "uint16",
          "name": "chainId",
          "type": "uint16"
        },
        {
          "internalType": "uint256",
          "name": "configType",
          "type": "uint256"
        },
        {
          "internalType": "bytes",
          "name": "config",
          "type": "bytes"
        }
      ],
      "name": "setConfig",
      "outputs": [],
      "stateMutability": "nonpayable",
      "type": "function"
    },
    {
      "inputs": [
        {
          "internalType": "uint16",
          "name": "version",
          "type": "uint16"
        }
      ],
      "name": "setSendVersion",
      "outputs": [],
      "stateMutability": "nonpayable",
      "type": "function"
    },
    {
      "inputs": [
        {
          "internalType": "uint16",
          "name": "remoteChainId",
          "type": "uint16"
        },
        {
          "internalType": "bytes",
          "name": "remoteAddress",
          "type": "bytes"
        }
      ],
      "name": "setTrustedRemoteAddress",
      "outputs": [],
      "stateMutability": "nonpayable",
      "type": "function"
    },
    {
      "inputs": [
        {
          "internalType": "uint64",
          "name": "",
          "type": "uint64"
        }
      ],
      "name": "storedExecutionHashes",
      "outputs": [
        {
          "internalType": "bytes32",
          "name": "",
          "type": "bytes32"
        }
      ],
      "stateMutability": "view",
      "type": "function"
    },
    {
      "inputs": [
        {
          "internalType": "address",
          "name": "newOwner",
          "type": "address"
        }
      ],
      "name": "transferOwnership",
      "outputs": [],
      "stateMutability": "nonpayable",
      "type": "function"
    },
    {
      "inputs": [
        {
          "internalType": "uint16",
          "name": "",
          "type": "uint16"
        }
      ],
      "name": "trustedRemoteLookup",
      "outputs": [
        {
          "internalType": "bytes",
          "name": "",
          "type": "bytes"
        }
      ],
      "stateMutability": "view",
      "type": "function"
    }
  ],
  "transactionHash": "0xe36d19a080bc4f9dec8305780aba759209de43f2a3590a4d09f96131fd4592ca",
  "args": [
    "0x66A71Dcef29A0fFBDBE3c6a460a3B5BC225Cd675"
  ],
  "numDeployments": 1,
  "solcInputHash": "9a7f9d25079b16ae95b7345b45dfd548",
  "bytecode": "0x60a060405234801561001057600080fd5b506040516117bc3803806117bc83398101604081905261002f91610109565b610038336100b9565b600180556001600160a01b0381166100a85760405162461bcd60e51b815260206004820152602960248201527f4f6d6e69636861696e50726f706f73616c53656e6465723a20696e76616c696460448201526808195b991c1bda5b9d60ba1b606482015260840160405180910390fd5b6001600160a01b0316608052610139565b600080546001600160a01b038381166001600160a01b0319831681178455604051919092169283917f8be0079c531659141344cd1fd0a4f28419497f9722a3daafe3b4186f6b6457e09190a35050565b60006020828403121561011b57600080fd5b81516001600160a01b038116811461013257600080fd5b9392505050565b60805161163e61017e6000396000818161020a015281816102eb015281816103570152818161042d01528181610739015281816109750152610b61015261163e6000f3fe6080604052600436106100ad5760003560e01c806307e0db17146100b25780631fdd1026146100d457806345e380a3146101145780635f6716f714610149578063715018a6146101765780637533d7881461018b5780638da5cb5b146101ab578063a6c3d165146101d8578063b353aaa7146101f8578063ba2a60da1461022c578063bb5a944f1461023f578063cbed8b9c14610252578063daceee5114610272578063f2fde38b146102aa575b600080fd5b3480156100be57600080fd5b506100d26100cd366004610d6f565b6102ca565b005b3480156100e057600080fd5b506101016100ef366004610da8565b60036020526000908152604090205481565b6040519081526020015b60405180910390f35b34801561012057600080fd5b5061013461012f366004610e0b565b610352565b6040805192835260208301919091520161010b565b34801561015557600080fd5b50610169610164366004610e8b565b6103fc565b60405161010b9190610f17565b34801561018257600080fd5b506100d26104ac565b34801561019757600080fd5b506101696101a6366004610d6f565b6104c0565b3480156101b757600080fd5b506101c061055a565b6040516001600160a01b03909116815260200161010b565b3480156101e457600080fd5b506100d26101f3366004610f37565b610569565b34801561020457600080fd5b506101c07f000000000000000000000000000000000000000000000000000000000000000081565b6100d261023a366004610f89565b6105f2565b6100d261024d366004610e0b565b610837565b34801561025e57600080fd5b506100d261026d366004611022565b610b42565b34801561027e57600080fd5b50600254610292906001600160401b031681565b6040516001600160401b03909116815260200161010b565b3480156102b657600080fd5b506100d26102c536600461107f565b610bd7565b6102d2610c50565b6040516307e0db1760e01b815261ffff821660048201527f00000000000000000000000000000000000000000000000000000000000000006001600160a01b0316906307e0db1790602401600060405180830381600087803b15801561033757600080fd5b505af115801561034b573d6000803e3d6000fd5b5050505050565b6000807f00000000000000000000000000000000000000000000000000000000000000006001600160a01b03166340a7bb108830898960008a8a6040518863ffffffff1660e01b81526004016103ae97969594939291906110d1565b6040805180830381865afa1580156103ca573d6000803e3d6000fd5b505050506040513d601f19601f820116820180604052508101906103ee9190611129565b915091509550959350505050565b604051633d7b2f6f60e21b815261ffff808516600483015283166024820152306044820152606481018290526060907f00000000000000000000000000000000000000000000000000000000000000006001600160a01b03169063f5ecbdbc90608401600060405180830381865afa15801561047c573d6000803e3d6000fd5b505050506040513d6000823e601f3d908101601f191682016040526104a49190810190611163565b949350505050565b6104b4610c50565b6104be6000610caf565b565b600460205260009081526040902080546104d99061120f565b80601f01602080910402602001604051908101604052809291908181526020018280546105059061120f565b80156105525780601f1061052757610100808354040283529160200191610552565b820191906000526020600020905b81548152906001019060200180831161053557829003601f168201915b505050505081565b6000546001600160a01b031690565b610571610c50565b81813060405160200161058693929190611249565b60408051601f1981840301815291815261ffff85166000908152600460205220906105b190826112b5565b507f8c0400cfe2d1199b1a725c78960bcc2a344d869b80590d0f2bd005db15a572ce8383836040516105e593929190611374565b60405180910390a1505050565b6105fa610cff565b6001600160401b038716600090815260036020526040902054806106785760405162461bcd60e51b815260206004820152602a60248201527f4f6d6e69636861696e50726f706f73616c53656e6465723a206e6f2073746f726044820152691959081c185e5b1bd85960b21b60648201526084015b60405180910390fd5b60008787878787876040516020016106959695949392919061139b565b6040516020818303038152906040529050818180519060200120146107165760405162461bcd60e51b815260206004820152603160248201527f4f6d6e69636861696e50726f706f73616c53656e6465723a20696e76616c696460448201527020657865637574696f6e20706172616d7360781b606482015260840161066f565b6001600160401b0389166000908152600360205260408120556001600160a01b037f00000000000000000000000000000000000000000000000000000000000000001663c580310061076834866113f6565b8a600460008d61ffff1661ffff1681526020019081526020016000208b8b3360008d8d6040518a63ffffffff1660e01b81526004016107ae98979695949392919061140f565b6000604051808303818588803b1580156107c757600080fd5b505af11580156107db573d6000803e3d6000fd5b5050505050886001600160401b03167f71f6d2b2aa9e3344f99b39005cfb62b9f3224726fd59c585d27529ace84c30ab8360405161081b91815260200190565b60405180910390a2505061082e60018055565b50505050505050565b61083f610c50565b61ffff85166000908152600460205260408120805461085d9061120f565b80601f01602080910402602001604051908101604052809291908181526020018280546108899061120f565b80156108d65780601f106108ab576101008083540402835291602001916108d6565b820191906000526020600020905b8154815290600101906020018083116108b957829003601f168201915b50505050509050805160000361095f5760405162461bcd60e51b815260206004820152604260248201527f4f6d6e69636861696e50726f706f73616c53656e6465723a2064657374696e6160448201527f74696f6e20636861696e206973206e6f742061207472757374656420736f7572606482015261636560f01b608482015260a40161066f565b60405162c5803160e81b81526001600160a01b037f0000000000000000000000000000000000000000000000000000000000000000169063c58031009034906109bb908a9086908b908b9032906000908d908d906004016114ee565b6000604051808303818588803b1580156109d457600080fd5b505af1935050505080156109e6575060015b610afb573d808015610a14576040519150601f19603f3d011682016040523d82523d6000602084013e610a19565b606091505b5060028054600091908290610a36906001600160401b031661154a565b91906101000a8154816001600160401b0302191690836001600160401b03160217905590506000888888888834604051602001610a789695949392919061139b565b60408051601f1981840301815282825280516020808301919091206001600160401b038716600081815260039093529390912055925061ffff8b16917f5f75bcca5c62694b542c33759787579412e120b9abbbb1d2a77133b75b1566c490610aeb908c908c908c908c9034908c90611578565b60405180910390a3505050610b3a565b8561ffff167f2ce1f76c46a8f9821497c22ba45b63ae46cf89cceb9846cad58411c155f9969e8686604051610b319291906115c6565b60405180910390a25b505050505050565b610b4a610c50565b6040516332fb62e760e21b81526001600160a01b037f0000000000000000000000000000000000000000000000000000000000000000169063cbed8b9c90610b9e90889088908890889088906004016115da565b600060405180830381600087803b158015610bb857600080fd5b505af1158015610bcc573d6000803e3d6000fd5b505050505050505050565b610bdf610c50565b6001600160a01b038116610c445760405162461bcd60e51b815260206004820152602660248201527f4f776e61626c653a206e6577206f776e657220697320746865207a65726f206160448201526564647265737360d01b606482015260840161066f565b610c4d81610caf565b50565b33610c5961055a565b6001600160a01b0316146104be5760405162461bcd60e51b815260206004820181905260248201527f4f776e61626c653a2063616c6c6572206973206e6f7420746865206f776e6572604482015260640161066f565b600080546001600160a01b038381166001600160a01b0319831681178455604051919092169283917f8be0079c531659141344cd1fd0a4f28419497f9722a3daafe3b4186f6b6457e09190a35050565b600260015403610d515760405162461bcd60e51b815260206004820152601f60248201527f5265656e7472616e637947756172643a207265656e7472616e742063616c6c00604482015260640161066f565b6002600155565b803561ffff81168114610d6a57600080fd5b919050565b600060208284031215610d8157600080fd5b610d8a82610d58565b9392505050565b80356001600160401b0381168114610d6a57600080fd5b600060208284031215610dba57600080fd5b610d8a82610d91565b60008083601f840112610dd557600080fd5b5081356001600160401b03811115610dec57600080fd5b602083019150836020828501011115610e0457600080fd5b9250929050565b600080600080600060608688031215610e2357600080fd5b610e2c86610d58565b945060208601356001600160401b0380821115610e4857600080fd5b610e5489838a01610dc3565b90965094506040880135915080821115610e6d57600080fd5b50610e7a88828901610dc3565b969995985093965092949392505050565b600080600060608486031215610ea057600080fd5b610ea984610d58565b9250610eb760208501610d58565b9150604084013590509250925092565b60005b83811015610ee2578181015183820152602001610eca565b50506000910152565b60008151808452610f03816020860160208601610ec7565b601f01601f19169290920160200192915050565b602081526000610d8a6020830184610eeb565b6001600160a01b03169052565b600080600060408486031215610f4c57600080fd5b610f5584610d58565b925060208401356001600160401b03811115610f7057600080fd5b610f7c86828701610dc3565b9497909650939450505050565b600080600080600080600060a0888a031215610fa457600080fd5b610fad88610d91565b9650610fbb60208901610d58565b955060408801356001600160401b0380821115610fd757600080fd5b610fe38b838c01610dc3565b909750955060608a0135915080821115610ffc57600080fd5b506110098a828b01610dc3565b989b979a50959894979596608090950135949350505050565b60008060008060006080868803121561103a57600080fd5b61104386610d58565b945061105160208701610d58565b93506040860135925060608601356001600160401b0381111561107357600080fd5b610e7a88828901610dc3565b60006020828403121561109157600080fd5b81356001600160a01b0381168114610d8a57600080fd5b81835281816020850137506000828201602090810191909152601f909101601f19169091010190565b61ffff881681526001600160a01b038716602082015260a06040820181905260009061110090830187896110a8565b8515156060840152828103608084015261111b8185876110a8565b9a9950505050505050505050565b6000806040838503121561113c57600080fd5b505080516020909101519092909150565b634e487b7160e01b600052604160045260246000fd5b60006020828403121561117557600080fd5b81516001600160401b038082111561118c57600080fd5b818401915084601f8301126111a057600080fd5b8151818111156111b2576111b261114d565b604051601f8201601f19908116603f011681019083821181831017156111da576111da61114d565b816040528281528760208487010111156111f357600080fd5b611204836020830160208801610ec7565b979650505050505050565b600181811c9082168061122357607f821691505b60208210810361124357634e487b7160e01b600052602260045260246000fd5b50919050565b8284823760609190911b6001600160601b0319169101908152601401919050565b601f8211156112b057600081815260208120601f850160051c810160208610156112915750805b601f850160051c820191505b81811015610b3a5782815560010161129d565b505050565b81516001600160401b038111156112ce576112ce61114d565b6112e2816112dc845461120f565b8461126a565b602080601f83116001811461131757600084156112ff5750858301515b600019600386901b1c1916600185901b178555610b3a565b600085815260208120601f198616915b8281101561134657888601518255948401946001909101908401611327565b50858210156113645787850151600019600388901b60f8161c191681555b5050505050600190811b01905550565b61ffff841681526040602082015260006113926040830184866110a8565b95945050505050565b61ffff871681526080602082015260006113b96080830187896110a8565b82810360408401526113cc8186886110a8565b915050826060830152979650505050505050565b634e487b7160e01b600052601160045260246000fd5b80820180821115611409576114096113e0565b92915050565b61ffff891681526000602060c08184015260008a5461142d8161120f565b8060c087015260e060018084166000811461144f576001811461146957611497565b60ff1985168984015283151560051b890183019550611497565b8f6000528660002060005b8581101561148f5781548b8201860152908301908801611474565b8a0184019650505b505050505083810360408501526114af818a8c6110a8565b9150506114bf6060840188610f2a565b6114cc6080840187610f2a565b82810360a08401526114df8185876110a8565b9b9a5050505050505050505050565b61ffff8916815260c06020820152600061150b60c083018a610eeb565b828103604084015261151e81898b6110a8565b6001600160a01b0388811660608601528716608085015283810360a085015290506114df8185876110a8565b60006001600160401b038281166002600160401b0319810161156e5761156e6113e0565b6001019392505050565b60808152600061158c60808301888a6110a8565b828103602084015261159f8187896110a8565b905084604084015282810360608401526115b98185610eeb565b9998505050505050505050565b6020815260006104a46020830184866110a8565b600061ffff8088168352808716602084015250846040830152608060608301526112046080830184866110a856fea264697066735822122021b3b70228b8d2c88546ab4c58c8563ecf44950d0c323cc4a0874e50fba501d664736f6c63430008110033",
  "devdoc": {
    "details": "When used with GovernorBravo the owner of this contract must be set to the Timelock contract",
    "kind": "dev",
    "methods": {
      "estimateFees(uint16,bytes,bytes)": {
        "details": "The estimated fees are the minimum required, it's recommended to increase the fees amount when sending a message. The unused amount will be refunded",
        "params": {
          "adapterParams": "The params used to specify the custom amount of gas required for the execution on the destination",
          "payload": "The payload to be sent to the remote chain. It's computed as follows payload = abi.encode(targets, values, signatures, calldatas)",
          "remoteChainId": "The LayerZero id of a remote chain"
        },
        "returns": {
          "nativeFee": "The amount of fee in the native gas token (e.g. ETH)",
          "zroFee": "The amount of fee in ZRO token"
        }
      },
      "execute(uint16,bytes,bytes)": {
        "details": "Stores the hash of the execution parameters if sending fails (e.g., due to insufficient fees)",
        "params": {
          "adapterParams": "The params used to specify the custom amount of gas required for the execution on the destination",
          "payload": "The payload to be sent to the remote chain. It's computed as follows payload = abi.encode(targets, values, signatures, calldatas)",
          "remoteChainId": "The LayerZero id of the remote chain"
        }
      },
      "getConfig(uint16,uint16,uint256)": {
        "params": {
          "chainId": "The LayerZero chainId",
          "configType": "Type of configuration. Every messaging library has its own convention.",
          "version": "Messaging library version"
        }
      },
      "owner()": {
        "details": "Returns the address of the current owner."
      },
      "renounceOwnership()": {
        "details": "Leaves the contract without owner. It will not be possible to call `onlyOwner` functions anymore. Can only be called by the current owner. NOTE: Renouncing ownership will leave the contract without an owner, thereby removing any functionality that is only available to the owner."
      },
      "retryExecute(uint64,uint16,bytes,bytes,uint256)": {
        "details": "Allows to provide more fees if needed. The extra fees will be refunded to the caller",
        "params": {
          "adapterParams": "The params used to specify the custom amount of gas required for the execution on the destination",
          "nonce": "The nonce to identify a failed message",
          "originalValue": "The msg.value passed when execute() function was called",
          "payload": "The payload to be sent to the remote chain. It's computed as follows payload = abi.encode(targets, values, signatures, calldatas)",
          "remoteChainId": "The LayerZero id of the remote chain"
        }
      },
      "setConfig(uint16,uint16,uint256,bytes)": {
        "params": {
          "chainId": "The LayerZero chainId for the pending config change",
          "config": "The configuration in bytes. It can encode arbitrary content",
          "configType": "The type of configuration. Every messaging library has its own convention",
          "version": "Messaging library version"
        }
      },
      "setSendVersion(uint16)": {
        "params": {
          "version": "New messaging library version"
        }
      },
      "setTrustedRemoteAddress(uint16,bytes)": {
        "params": {
          "remoteAddress": "The address of the contract on the remote chain to receive messages sent by this contract",
          "remoteChainId": "The LayerZero id of a remote chain"
        }
      },
      "transferOwnership(address)": {
        "details": "Transfers ownership of the contract to a new account (`newOwner`). Can only be called by the current owner."
      }
    },
    "stateVariables": {
      "storedExecutionHashes": {
        "details": "[nonce] -> [executionHash]"
      }
    },
    "title": "Omnichain Governance Proposal Sender",
    "version": 1
  },
  "userdoc": {
    "events": {
      "ClearPayload(uint64,bytes32)": {
        "notice": "Emitted when a previously failed message successfully sent to the remote chain"
      },
      "ExecuteRemoteProposal(uint16,bytes)": {
        "notice": "Emitted when a proposal execution request sent to the remote chain"
      },
      "SetTrustedRemoteAddress(uint16,bytes)": {
        "notice": "Emitted when a remote message receiver is set for the remote chain"
      },
      "StorePayload(uint64,uint16,bytes,bytes,uint256,bytes)": {
        "notice": "Emitted when an execution hash of a failed message saved"
      }
    },
    "kind": "user",
    "methods": {
      "estimateFees(uint16,bytes,bytes)": {
        "notice": "Estimates LayerZero fees for cross-chain message delivery to the remote chain"
      },
      "execute(uint16,bytes,bytes)": {
        "notice": "Sends a message to execute a remote proposal"
      },
      "getConfig(uint16,uint16,uint256)": {
        "notice": "Gets the configuration of the LayerZero messaging library of the specified version"
      },
      "lzEndpoint()": {
        "notice": "LayerZero endpoint for sending messages to remote chains"
      },
      "retryExecute(uint64,uint16,bytes,bytes,uint256)": {
        "notice": "Resends a previously failed message"
      },
      "setConfig(uint16,uint16,uint256,bytes)": {
        "notice": "Sets the configuration of the LayerZero messaging library of the specified version"
      },
      "setSendVersion(uint16)": {
        "notice": "Sets the configuration of the LayerZero messaging library of the specified version"
      },
      "setTrustedRemoteAddress(uint16,bytes)": {
        "notice": "Sets the remote message receiver address"
      },
      "storedExecutionHashes(uint64)": {
        "notice": "Execution hashes of failed messages"
      },
      "trustedRemoteLookup(uint16)": {
        "notice": "Specifies the allowed path for sending messages (remote chainId => remote app address + local app address)"
      }
    },
    "notice": "Sends a proposal's data to remote chains for execution after the proposal passes on the main chain",
    "version": 1
  },
  "storageLayout": {
    "storage": [
      {
        "astId": 2960,
        "contract": "contracts/OmnichainProposalSender.sol:OmnichainProposalSender",
        "label": "_owner",
        "offset": 0,
        "slot": "0",
        "type": "t_address"
      },
      {
        "astId": 3076,
        "contract": "contracts/OmnichainProposalSender.sol:OmnichainProposalSender",
        "label": "_status",
        "offset": 0,
        "slot": "1",
        "type": "t_uint256"
      },
      {
        "astId": 3397,
        "contract": "contracts/OmnichainProposalSender.sol:OmnichainProposalSender",
        "label": "lastStoredPayloadNonce",
        "offset": 0,
        "slot": "2",
        "type": "t_uint64"
      },
      {
        "astId": 3402,
        "contract": "contracts/OmnichainProposalSender.sol:OmnichainProposalSender",
        "label": "storedExecutionHashes",
        "offset": 0,
        "slot": "3",
        "type": "t_mapping(t_uint64,t_bytes32)"
      },
      {
        "astId": 3411,
        "contract": "contracts/OmnichainProposalSender.sol:OmnichainProposalSender",
        "label": "trustedRemoteLookup",
        "offset": 0,
        "slot": "4",
        "type": "t_mapping(t_uint16,t_bytes_storage)"
      }
    ],
    "types": {
      "t_address": {
        "encoding": "inplace",
        "label": "address",
        "numberOfBytes": "20"
      },
      "t_bytes32": {
        "encoding": "inplace",
        "label": "bytes32",
        "numberOfBytes": "32"
      },
      "t_bytes_storage": {
        "encoding": "bytes",
        "label": "bytes",
        "numberOfBytes": "32"
      },
      "t_mapping(t_uint16,t_bytes_storage)": {
        "encoding": "mapping",
        "key": "t_uint16",
        "label": "mapping(uint16 => bytes)",
        "numberOfBytes": "32",
        "value": "t_bytes_storage"
      },
      "t_mapping(t_uint64,t_bytes32)": {
        "encoding": "mapping",
        "key": "t_uint64",
        "label": "mapping(uint64 => bytes32)",
        "numberOfBytes": "32",
        "value": "t_bytes32"
      },
      "t_uint16": {
        "encoding": "inplace",
        "label": "uint16",
        "numberOfBytes": "2"
      },
      "t_uint256": {
        "encoding": "inplace",
        "label": "uint256",
        "numberOfBytes": "32"
      },
      "t_uint64": {
        "encoding": "inplace",
        "label": "uint64",
        "numberOfBytes": "8"
      }
    }
  }
}