{
  "address": "0xeb0BCF27D1Fb4b25e708fBB815c421Aeb51eA9fc",
  "abi": [
    {
      "inputs": [
        {
          "internalType": "address",
          "name": "_endpoint",
          "type": "address"
        }
      ],
      "stateMutability": "nonpayable",
      "type": "constructor"
    },
    {
      "anonymous": false,
      "inputs": [
        {
          "indexed": false,
          "internalType": "uint16",
          "name": "_srcChainId",
          "type": "uint16"
        },
        {
          "indexed": false,
          "internalType": "bytes",
          "name": "_srcAddress",
          "type": "bytes"
        },
        {
          "indexed": false,
          "internalType": "uint64",
          "name": "_nonce",
          "type": "uint64"
        },
        {
          "indexed": false,
          "internalType": "bytes",
          "name": "_payload",
          "type": "bytes"
        },
        {
          "indexed": false,
          "internalType": "bytes",
          "name": "_reason",
          "type": "bytes"
        }
      ],
      "name": "MessageFailed",
      "type": "event"
    },
    {
      "anonymous": false,
      "inputs": [
        {
          "indexed": true,
          "internalType": "address",
          "name": "previousOwner",
          "type": "address"
        },
        {
          "indexed": true,
          "internalType": "address",
          "name": "newOwner",
          "type": "address"
        }
      ],
      "name": "OwnershipTransferred",
      "type": "event"
    },
    {
      "anonymous": false,
      "inputs": [
        {
          "indexed": false,
          "internalType": "bytes",
          "name": "payload",
          "type": "bytes"
        }
      ],
      "name": "ProposalExecuted",
      "type": "event"
    },
    {
      "anonymous": false,
      "inputs": [
        {
          "indexed": false,
          "internalType": "uint16",
          "name": "_srcChainId",
          "type": "uint16"
        },
        {
          "indexed": false,
          "internalType": "bytes",
          "name": "_srcAddress",
          "type": "bytes"
        },
        {
          "indexed": false,
          "internalType": "uint64",
          "name": "_nonce",
          "type": "uint64"
        },
        {
          "indexed": false,
          "internalType": "bytes",
          "name": "_reason",
          "type": "bytes"
        }
      ],
      "name": "ProposalFailed",
      "type": "event"
    },
    {
      "anonymous": false,
      "inputs": [
        {
          "indexed": false,
          "internalType": "uint16",
          "name": "_srcChainId",
          "type": "uint16"
        },
        {
          "indexed": false,
          "internalType": "bytes",
          "name": "_srcAddress",
          "type": "bytes"
        },
        {
          "indexed": false,
          "internalType": "uint64",
          "name": "_nonce",
          "type": "uint64"
        },
        {
          "indexed": false,
          "internalType": "bytes32",
          "name": "_payloadHash",
          "type": "bytes32"
        }
      ],
      "name": "RetryMessageSuccess",
      "type": "event"
    },
    {
      "anonymous": false,
      "inputs": [
        {
          "indexed": false,
          "internalType": "uint16",
          "name": "_dstChainId",
          "type": "uint16"
        },
        {
          "indexed": false,
          "internalType": "uint16",
          "name": "_type",
          "type": "uint16"
        },
        {
          "indexed": false,
          "internalType": "uint256",
          "name": "_minDstGas",
          "type": "uint256"
        }
      ],
      "name": "SetMinDstGas",
      "type": "event"
    },
    {
      "anonymous": false,
      "inputs": [
        {
          "indexed": false,
          "internalType": "address",
          "name": "precrime",
          "type": "address"
        }
      ],
      "name": "SetPrecrime",
      "type": "event"
    },
    {
      "anonymous": false,
      "inputs": [
        {
          "indexed": false,
          "internalType": "uint16",
          "name": "_remoteChainId",
          "type": "uint16"
        },
        {
          "indexed": false,
          "internalType": "bytes",
          "name": "_path",
          "type": "bytes"
        }
      ],
      "name": "SetTrustedRemote",
      "type": "event"
    },
    {
      "anonymous": false,
      "inputs": [
        {
          "indexed": false,
          "internalType": "uint16",
          "name": "_remoteChainId",
          "type": "uint16"
        },
        {
          "indexed": false,
          "internalType": "bytes",
          "name": "_remoteAddress",
          "type": "bytes"
        }
      ],
      "name": "SetTrustedRemoteAddress",
      "type": "event"
    },
    {
      "inputs": [],
      "name": "DEFAULT_PAYLOAD_SIZE_LIMIT",
      "outputs": [
        {
          "internalType": "uint256",
          "name": "",
          "type": "uint256"
        }
      ],
      "stateMutability": "view",
      "type": "function"
    },
    {
      "inputs": [
        {
          "internalType": "uint16",
          "name": "",
          "type": "uint16"
        },
        {
          "internalType": "bytes",
          "name": "",
          "type": "bytes"
        },
        {
          "internalType": "uint64",
          "name": "",
          "type": "uint64"
        }
      ],
      "name": "failedMessages",
      "outputs": [
        {
          "internalType": "bytes32",
          "name": "",
          "type": "bytes32"
        }
      ],
      "stateMutability": "view",
      "type": "function"
    },
    {
      "inputs": [
        {
          "internalType": "uint16",
          "name": "_srcChainId",
          "type": "uint16"
        },
        {
          "internalType": "bytes",
          "name": "_srcAddress",
          "type": "bytes"
        }
      ],
      "name": "forceResumeReceive",
      "outputs": [],
      "stateMutability": "nonpayable",
      "type": "function"
    },
    {
      "inputs": [
        {
          "internalType": "uint16",
          "name": "_version",
          "type": "uint16"
        },
        {
          "internalType": "uint16",
          "name": "_chainId",
          "type": "uint16"
        },
        {
          "internalType": "address",
          "name": "",
          "type": "address"
        },
        {
          "internalType": "uint256",
          "name": "_configType",
          "type": "uint256"
        }
      ],
      "name": "getConfig",
      "outputs": [
        {
          "internalType": "bytes",
          "name": "",
          "type": "bytes"
        }
      ],
      "stateMutability": "view",
      "type": "function"
    },
    {
      "inputs": [
        {
          "internalType": "uint16",
          "name": "_remoteChainId",
          "type": "uint16"
        }
      ],
      "name": "getTrustedRemoteAddress",
      "outputs": [
        {
          "internalType": "bytes",
          "name": "",
          "type": "bytes"
        }
      ],
      "stateMutability": "view",
      "type": "function"
    },
    {
      "inputs": [
        {
          "internalType": "uint16",
          "name": "_srcChainId",
          "type": "uint16"
        },
        {
          "internalType": "bytes",
          "name": "_srcAddress",
          "type": "bytes"
        }
      ],
      "name": "isTrustedRemote",
      "outputs": [
        {
          "internalType": "bool",
          "name": "",
          "type": "bool"
        }
      ],
      "stateMutability": "view",
      "type": "function"
    },
    {
      "inputs": [],
      "name": "lzEndpoint",
      "outputs": [
        {
          "internalType": "contract ILayerZeroEndpoint",
          "name": "",
          "type": "address"
        }
      ],
      "stateMutability": "view",
      "type": "function"
    },
    {
      "inputs": [
        {
          "internalType": "uint16",
          "name": "_srcChainId",
          "type": "uint16"
        },
        {
          "internalType": "bytes",
          "name": "_srcAddress",
          "type": "bytes"
        },
        {
          "internalType": "uint64",
          "name": "_nonce",
          "type": "uint64"
        },
        {
          "internalType": "bytes",
          "name": "_payload",
          "type": "bytes"
        }
      ],
      "name": "lzReceive",
      "outputs": [],
      "stateMutability": "nonpayable",
      "type": "function"
    },
    {
      "inputs": [
        {
          "internalType": "uint16",
          "name": "",
          "type": "uint16"
        },
        {
          "internalType": "uint16",
          "name": "",
          "type": "uint16"
        }
      ],
      "name": "minDstGasLookup",
      "outputs": [
        {
          "internalType": "uint256",
          "name": "",
          "type": "uint256"
        }
      ],
      "stateMutability": "view",
      "type": "function"
    },
    {
      "inputs": [
        {
          "internalType": "uint16",
          "name": "_srcChainId",
          "type": "uint16"
        },
        {
          "internalType": "bytes",
          "name": "_srcAddress",
          "type": "bytes"
        },
        {
          "internalType": "uint64",
          "name": "_nonce",
          "type": "uint64"
        },
        {
          "internalType": "bytes",
          "name": "_payload",
          "type": "bytes"
        }
      ],
      "name": "nonblockingLzReceive",
      "outputs": [],
      "stateMutability": "nonpayable",
      "type": "function"
    },
    {
      "inputs": [],
      "name": "owner",
      "outputs": [
        {
          "internalType": "address",
          "name": "",
          "type": "address"
        }
      ],
      "stateMutability": "view",
      "type": "function"
    },
    {
      "inputs": [
        {
          "internalType": "uint16",
          "name": "",
          "type": "uint16"
        }
      ],
      "name": "payloadSizeLimitLookup",
      "outputs": [
        {
          "internalType": "uint256",
          "name": "",
          "type": "uint256"
        }
      ],
      "stateMutability": "view",
      "type": "function"
    },
    {
      "inputs": [],
      "name": "precrime",
      "outputs": [
        {
          "internalType": "address",
          "name": "",
          "type": "address"
        }
      ],
      "stateMutability": "view",
      "type": "function"
    },
    {
      "inputs": [],
      "name": "renounceOwnership",
      "outputs": [],
      "stateMutability": "nonpayable",
      "type": "function"
    },
    {
      "inputs": [
        {
          "internalType": "uint16",
          "name": "_srcChainId",
          "type": "uint16"
        },
        {
          "internalType": "bytes",
          "name": "_srcAddress",
          "type": "bytes"
        },
        {
          "internalType": "uint64",
          "name": "_nonce",
          "type": "uint64"
        },
        {
          "internalType": "bytes",
          "name": "_payload",
          "type": "bytes"
        }
      ],
      "name": "retryMessage",
      "outputs": [],
      "stateMutability": "payable",
      "type": "function"
    },
    {
      "inputs": [
        {
          "internalType": "uint16",
          "name": "_version",
          "type": "uint16"
        },
        {
          "internalType": "uint16",
          "name": "_chainId",
          "type": "uint16"
        },
        {
          "internalType": "uint256",
          "name": "_configType",
          "type": "uint256"
        },
        {
          "internalType": "bytes",
          "name": "_config",
          "type": "bytes"
        }
      ],
      "name": "setConfig",
      "outputs": [],
      "stateMutability": "nonpayable",
      "type": "function"
    },
    {
      "inputs": [
        {
          "internalType": "uint16",
          "name": "_dstChainId",
          "type": "uint16"
        },
        {
          "internalType": "uint16",
          "name": "_packetType",
          "type": "uint16"
        },
        {
          "internalType": "uint256",
          "name": "_minGas",
          "type": "uint256"
        }
      ],
      "name": "setMinDstGas",
      "outputs": [],
      "stateMutability": "nonpayable",
      "type": "function"
    },
    {
      "inputs": [
        {
          "internalType": "uint16",
          "name": "_dstChainId",
          "type": "uint16"
        },
        {
          "internalType": "uint256",
          "name": "_size",
          "type": "uint256"
        }
      ],
      "name": "setPayloadSizeLimit",
      "outputs": [],
      "stateMutability": "nonpayable",
      "type": "function"
    },
    {
      "inputs": [
        {
          "internalType": "address",
          "name": "_precrime",
          "type": "address"
        }
      ],
      "name": "setPrecrime",
      "outputs": [],
      "stateMutability": "nonpayable",
      "type": "function"
    },
    {
      "inputs": [
        {
          "internalType": "uint16",
          "name": "_version",
          "type": "uint16"
        }
      ],
      "name": "setReceiveVersion",
      "outputs": [],
      "stateMutability": "nonpayable",
      "type": "function"
    },
    {
      "inputs": [
        {
          "internalType": "uint16",
          "name": "_version",
          "type": "uint16"
        }
      ],
      "name": "setSendVersion",
      "outputs": [],
      "stateMutability": "nonpayable",
      "type": "function"
    },
    {
      "inputs": [
        {
          "internalType": "uint16",
          "name": "_srcChainId",
          "type": "uint16"
        },
        {
          "internalType": "bytes",
          "name": "_path",
          "type": "bytes"
        }
      ],
      "name": "setTrustedRemote",
      "outputs": [],
      "stateMutability": "nonpayable",
      "type": "function"
    },
    {
      "inputs": [
        {
          "internalType": "uint16",
          "name": "_remoteChainId",
          "type": "uint16"
        },
        {
          "internalType": "bytes",
          "name": "_remoteAddress",
          "type": "bytes"
        }
      ],
      "name": "setTrustedRemoteAddress",
      "outputs": [],
      "stateMutability": "nonpayable",
      "type": "function"
    },
    {
      "inputs": [
        {
          "internalType": "address",
          "name": "newOwner",
          "type": "address"
        }
      ],
      "name": "transferOwnership",
      "outputs": [],
      "stateMutability": "nonpayable",
      "type": "function"
    },
    {
      "inputs": [
        {
          "internalType": "uint16",
          "name": "",
          "type": "uint16"
        }
      ],
      "name": "trustedRemoteLookup",
      "outputs": [
        {
          "internalType": "bytes",
          "name": "",
          "type": "bytes"
        }
      ],
      "stateMutability": "view",
      "type": "function"
    },
    {
      "stateMutability": "payable",
      "type": "receive"
    }
  ],
  "transactionHash": "0x113e93ff61c685eb9d2aee97298f547cf18bb8bc5723d8a9415b49702a7c1e52",
  "args": [
    "0x3c2269811836af69497E5F486A85D7316753cf62"
  ],
  "numDeployments": 1,
  "solcInputHash": "9a7f9d25079b16ae95b7345b45dfd548",
  "bytecode": "0x60a06040523480156200001157600080fd5b5060405162002480380380620024808339810160408190526200003491620000aa565b808062000041336200005a565b6001600160a01b031660805250506001600655620000dc565b600080546001600160a01b038381166001600160a01b0319831681178455604051919092169283917f8be0079c531659141344cd1fd0a4f28419497f9722a3daafe3b4186f6b6457e09190a35050565b600060208284031215620000bd57600080fd5b81516001600160a01b0381168114620000d557600080fd5b9392505050565b60805161235e62000122600039600081816103c4015281816104d201528181610721015281816107c9015281816108ec01528181610d010152611143015261235e6000f3fe6080604052600436106101295760003560e01c80621d35671461013557806307e0db17146101575780630df374831461017757806310ddb137146101975780633d8b38f6146101b75780633f1f4fa4146101ec57806342d65a8d146102275780635b8c41e61461024757806366ad5c8a14610296578063715018a6146102b65780637533d788146102cb5780638cfd8f5c146102f85780638da5cb5b14610330578063950c8a74146103525780639f38369a14610372578063a6c3d16514610392578063b353aaa7146103b2578063baf3292d146103e6578063c446183414610406578063cbed8b9c1461041c578063d1deba1f1461043c578063df2a5b3b1461044f578063eb8d72b71461046f578063f2fde38b1461048f578063f5ecbdbc146104af57600080fd5b3661013057005b600080fd5b34801561014157600080fd5b506101556101503660046117f5565b6104cf565b005b34801561016357600080fd5b50610155610172366004611888565b610700565b34801561018357600080fd5b506101556101923660046118a3565b610789565b3480156101a357600080fd5b506101556101b2366004611888565b6107a8565b3480156101c357600080fd5b506101d76101d23660046118cd565b610800565b60405190151581526020015b60405180910390f35b3480156101f857600080fd5b50610219610207366004611888565b60036020526000908152604090205481565b6040519081526020016101e3565b34801561023357600080fd5b506101556102423660046118cd565b6108cd565b34801561025357600080fd5b5061021961026236600461198c565b6005602090815260009384526040808520845180860184018051928152908401958401959095209452929052825290205481565b3480156102a257600080fd5b506101556102b13660046117f5565b610953565b3480156102c257600080fd5b50610155610a2f565b3480156102d757600080fd5b506102eb6102e6366004611888565b610a43565b6040516101e39190611a7c565b34801561030457600080fd5b50610219610313366004611a8f565b600260209081526000928352604080842090915290825290205481565b34801561033c57600080fd5b50610345610add565b6040516101e39190611ac2565b34801561035e57600080fd5b50600454610345906001600160a01b031681565b34801561037e57600080fd5b506102eb61038d366004611888565b610aec565b34801561039e57600080fd5b506101556103ad3660046118cd565b610bfb565b3480156103be57600080fd5b506103457f000000000000000000000000000000000000000000000000000000000000000081565b3480156103f257600080fd5b50610155610401366004611aeb565b610c84565b34801561041257600080fd5b5061021961271081565b34801561042857600080fd5b50610155610437366004611b08565b610ce2565b61015561044a3660046117f5565b610d77565b34801561045b57600080fd5b5061015561046a366004611b76565b610f8d565b34801561047b57600080fd5b5061015561048a3660046118cd565b61103f565b34801561049b57600080fd5b506101556104aa366004611aeb565b611099565b3480156104bb57600080fd5b506102eb6104ca366004611bb2565b611112565b337f00000000000000000000000000000000000000000000000000000000000000006001600160a01b03161461054c5760405162461bcd60e51b815260206004820152601e60248201527f4c7a4170703a20696e76616c696420656e64706f696e742063616c6c6572000060448201526064015b60405180910390fd5b61ffff86166000908152600160205260408120805461056a90611bff565b80601f016020809104026020016040519081016040528092919081815260200182805461059690611bff565b80156105e35780601f106105b8576101008083540402835291602001916105e3565b820191906000526020600020905b8154815290600101906020018083116105c657829003601f168201915b505050505090508051868690501480156105fe575060008151115b801561062657508051602082012060405161061c9088908890611c39565b6040518091039020145b6106815760405162461bcd60e51b815260206004820152602660248201527f4c7a4170703a20696e76616c696420736f757263652073656e64696e6720636f6044820152651b9d1c9858dd60d21b6064820152608401610543565b6106f78787878080601f01602080910402602001604051908101604052809392919081815260200183838082843760009201919091525050604080516020601f8a018190048102820181019092528881528a9350915088908890819084018382808284376000920191909152506111c392505050565b50505050505050565b6107086112d7565b6040516307e0db1760e01b815261ffff821660048201527f00000000000000000000000000000000000000000000000000000000000000006001600160a01b0316906307e0db17906024015b600060405180830381600087803b15801561076e57600080fd5b505af1158015610782573d6000803e3d6000fd5b5050505050565b6107916112d7565b61ffff909116600090815260036020526040902055565b6107b06112d7565b6040516310ddb13760e01b815261ffff821660048201527f00000000000000000000000000000000000000000000000000000000000000006001600160a01b0316906310ddb13790602401610754565b61ffff83166000908152600160205260408120805482919061082190611bff565b80601f016020809104026020016040519081016040528092919081815260200182805461084d90611bff565b801561089a5780601f1061086f5761010080835404028352916020019161089a565b820191906000526020600020905b81548152906001019060200180831161087d57829003601f168201915b5050505050905083836040516108b1929190611c39565b60405180910390208180519060200120149150505b9392505050565b6108d56112d7565b6040516342d65a8d60e01b81526001600160a01b037f000000000000000000000000000000000000000000000000000000000000000016906342d65a8d9061092590869086908690600401611c72565b600060405180830381600087803b15801561093f57600080fd5b505af11580156106f7573d6000803e3d6000fd5b3330146109b15760405162461bcd60e51b815260206004820152602660248201527f4e6f6e626c6f636b696e674c7a4170703a2063616c6c6572206d7573742062656044820152650204c7a4170760d41b6064820152608401610543565b610a278686868080601f01602080910402602001604051908101604052809392919081815260200183838082843760009201919091525050604080516020601f89018190048102820181019092528781528993509150879087908190840183828082843760009201919091525061133692505050565b505050505050565b610a376112d7565b610a416000611416565b565b60016020526000908152604090208054610a5c90611bff565b80601f0160208091040260200160405190810160405280929190818152602001828054610a8890611bff565b8015610ad55780601f10610aaa57610100808354040283529160200191610ad5565b820191906000526020600020905b815481529060010190602001808311610ab857829003601f168201915b505050505081565b6000546001600160a01b031690565b61ffff8116600090815260016020526040812080546060929190610b0f90611bff565b80601f0160208091040260200160405190810160405280929190818152602001828054610b3b90611bff565b8015610b885780601f10610b5d57610100808354040283529160200191610b88565b820191906000526020600020905b815481529060010190602001808311610b6b57829003601f168201915b505050505090508051600003610be05760405162461bcd60e51b815260206004820152601d60248201527f4c7a4170703a206e6f20747275737465642070617468207265636f72640000006044820152606401610543565b6108c6600060148351610bf39190611ca6565b839190611466565b610c036112d7565b818130604051602001610c1893929190611cbf565b60408051601f1981840301815291815261ffff8516600090815260016020522090610c439082611d40565b507f8c0400cfe2d1199b1a725c78960bcc2a344d869b80590d0f2bd005db15a572ce838383604051610c7793929190611c72565b60405180910390a1505050565b610c8c6112d7565b600480546001600160a01b0319166001600160a01b0383161790556040517f5db758e995a17ec1ad84bdef7e8c3293a0bd6179bcce400dff5d4c3d87db726b90610cd7908390611ac2565b60405180910390a150565b610cea6112d7565b6040516332fb62e760e21b81526001600160a01b037f0000000000000000000000000000000000000000000000000000000000000000169063cbed8b9c90610d3e9088908890889088908890600401611df9565b600060405180830381600087803b158015610d5857600080fd5b505af1158015610d6c573d6000803e3d6000fd5b505050505050505050565b61ffff86166000908152600560205260408082209051610d9a9088908890611c39565b90815260408051602092819003830190206001600160401b03871660009081529252902054905080610e1a5760405162461bcd60e51b815260206004820152602360248201527f4e6f6e626c6f636b696e674c7a4170703a206e6f2073746f726564206d65737360448201526261676560e81b6064820152608401610543565b808383604051610e2b929190611c39565b604051809103902014610e8a5760405162461bcd60e51b815260206004820152602160248201527f4e6f6e626c6f636b696e674c7a4170703a20696e76616c6964207061796c6f616044820152601960fa1b6064820152608401610543565b61ffff87166000908152600560205260408082209051610ead9089908990611c39565b90815260408051602092819003830181206001600160401b038916600090815290845282902093909355601f88018290048202830182019052868252610f45918991899089908190840183828082843760009201919091525050604080516020601f8a018190048102820181019092528881528a93509150889088908190840183828082843760009201919091525061133692505050565b7fc264d91f3adc5588250e1551f547752ca0cfa8f6b530d243b9f9f4cab10ea8e58787878785604051610f7c959493929190611e32565b60405180910390a150505050505050565b610f956112d7565b60008111610fdd5760405162461bcd60e51b81526020600482015260156024820152744c7a4170703a20696e76616c6964206d696e47617360581b6044820152606401610543565b61ffff83811660008181526002602090815260408083209487168084529482529182902085905581519283528201929092529081018290527f9d5c7c0b934da8fefa9c7760c98383778a12dfbfc0c3b3106518f43fb9508ac090606001610c77565b6110476112d7565b61ffff83166000908152600160205260409020611065828483611e6d565b507ffa41487ad5d6728f0b19276fa1eddc16558578f5109fc39d2dc33c3230470dab838383604051610c7793929190611c72565b6110a16112d7565b6001600160a01b0381166111065760405162461bcd60e51b815260206004820152602660248201527f4f776e61626c653a206e6577206f776e657220697320746865207a65726f206160448201526564647265737360d01b6064820152608401610543565b61110f81611416565b50565b604051633d7b2f6f60e21b815261ffff808616600483015284166024820152306044820152606481018290526060907f00000000000000000000000000000000000000000000000000000000000000006001600160a01b03169063f5ecbdbc90608401600060405180830381865afa158015611192573d6000803e3d6000fd5b505050506040513d6000823e601f3d908101601f191682016040526111ba9190810190611f76565b95945050505050565b8051602082012061753060008061123b835a6111df9190611ca6565b60966366ad5c8a60e01b8b8b8b8b6040516024016112009493929190611fb2565b60408051601f198184030181529190526020810180516001600160e01b03166001600160e01b03199093169290921790915230929190611573565b91509150816112cd5761ffff8816600090815260056020526040908190209051859190611269908a90611ff0565b9081526040805191829003602090810183206001600160401b038b166000908152915220919091557f9c8956b55a8d2adbd435a058f8e11a447b2bf5c72abb98457e20050587ba9b96906112c4908a908a908a908690611fb2565b60405180910390a15b5050505050505050565b336112e0610add565b6001600160a01b031614610a415760405162461bcd60e51b815260206004820181905260248201527f4f776e61626c653a2063616c6c6572206973206e6f7420746865206f776e65726044820152606401610543565b6000806000808480602001905181019061135091906121a8565b935093509350935060005b84518110156113e6576113d4858281518110611379576113796122b5565b6020026020010151858381518110611393576113936122b5565b60200260200101518584815181106113ad576113ad6122b5565b60200260200101518585815181106113c7576113c76122b5565b60200260200101516115fd565b806113de816122cb565b91505061135b565b507f5f1c84a01d3bb49fae8cd2b12e5cbc6b36654a70f3ae95106da35a58753a7111856040516112c49190611a7c565b600080546001600160a01b038381166001600160a01b0319831681178455604051919092169283917f8be0079c531659141344cd1fd0a4f28419497f9722a3daafe3b4186f6b6457e09190a35050565b60608161147481601f6122e4565b10156114b35760405162461bcd60e51b815260206004820152600e60248201526d736c6963655f6f766572666c6f7760901b6044820152606401610543565b6114bd82846122e4565b845110156115015760405162461bcd60e51b8152602060048201526011602482015270736c6963655f6f75744f66426f756e647360781b6044820152606401610543565b606082158015611520576040519150600082526020820160405261156a565b6040519150601f8416801560200281840101858101878315602002848b0101015b81831015611559578051835260209283019201611541565b5050858452601f01601f1916604052505b50949350505050565b6000606060008060008661ffff166001600160401b038111156115985761159861191f565b6040519080825280601f01601f1916602001820160405280156115c2576020820181803683370190505b50905060008087516020890160008d8df191503d9250868311156115e4578692505b828152826000602083013e909890975095505050505050565b611605611726565b6000825160001461163e5782805190602001208260405160200161162a9291906122f7565b604051602081830303815290604052611640565b815b90506000856001600160a01b0316858360405161165d9190611ff0565b60006040518083038185875af1925050503d806000811461169a576040519150601f19603f3d011682016040523d82523d6000602084013e61169f565b606091505b50509050806117145760405162461bcd60e51b815260206004820152603b60248201527f4f6d6e69636861696e476f7665726e616e63654578656375746f723a2074726160448201527a1b9cd858dd1a5bdb88195e1958dd5d1a5bdb881c995d995c9d1959602a1b6064820152608401610543565b50506117206001600655565b50505050565b6002600654036117785760405162461bcd60e51b815260206004820152601f60248201527f5265656e7472616e637947756172643a207265656e7472616e742063616c6c006044820152606401610543565b6002600655565b803561ffff8116811461179157600080fd5b919050565b60008083601f8401126117a857600080fd5b5081356001600160401b038111156117bf57600080fd5b6020830191508360208285010111156117d757600080fd5b9250929050565b80356001600160401b038116811461179157600080fd5b6000806000806000806080878903121561180e57600080fd5b6118178761177f565b955060208701356001600160401b038082111561183357600080fd5b61183f8a838b01611796565b909750955085915061185360408a016117de565b9450606089013591508082111561186957600080fd5b5061187689828a01611796565b979a9699509497509295939492505050565b60006020828403121561189a57600080fd5b6108c68261177f565b600080604083850312156118b657600080fd5b6118bf8361177f565b946020939093013593505050565b6000806000604084860312156118e257600080fd5b6118eb8461177f565b925060208401356001600160401b0381111561190657600080fd5b61191286828701611796565b9497909650939450505050565b634e487b7160e01b600052604160045260246000fd5b604051601f8201601f191681016001600160401b038111828210171561195d5761195d61191f565b604052919050565b60006001600160401b0382111561197e5761197e61191f565b50601f01601f191660200190565b6000806000606084860312156119a157600080fd5b6119aa8461177f565b925060208401356001600160401b038111156119c557600080fd5b8401601f810186136119d657600080fd5b80356119e96119e482611965565b611935565b8181528760208385010111156119fe57600080fd5b81602084016020830137600060208383010152809450505050611a23604085016117de565b90509250925092565b60005b83811015611a47578181015183820152602001611a2f565b50506000910152565b60008151808452611a68816020860160208601611a2c565b601f01601f19169290920160200192915050565b6020815260006108c66020830184611a50565b60008060408385031215611aa257600080fd5b611aab8361177f565b9150611ab96020840161177f565b90509250929050565b6001600160a01b0391909116815260200190565b6001600160a01b038116811461110f57600080fd5b600060208284031215611afd57600080fd5b81356108c681611ad6565b600080600080600060808688031215611b2057600080fd5b611b298661177f565b9450611b376020870161177f565b93506040860135925060608601356001600160401b03811115611b5957600080fd5b611b6588828901611796565b969995985093965092949392505050565b600080600060608486031215611b8b57600080fd5b611b948461177f565b9250611ba26020850161177f565b9150604084013590509250925092565b60008060008060808587031215611bc857600080fd5b611bd18561177f565b9350611bdf6020860161177f565b92506040850135611bef81611ad6565b9396929550929360600135925050565b600181811c90821680611c1357607f821691505b602082108103611c3357634e487b7160e01b600052602260045260246000fd5b50919050565b8183823760009101908152919050565b81835281816020850137506000828201602090810191909152601f909101601f19169091010190565b61ffff841681526040602082015260006111ba604083018486611c49565b634e487b7160e01b600052601160045260246000fd5b81810381811115611cb957611cb9611c90565b92915050565b8284823760609190911b6001600160601b0319169101908152601401919050565b601f821115611d2657600081815260208120601f850160051c81016020861015611d075750805b601f850160051c820191505b81811015610a2757828155600101611d13565b505050565b600019600383901b1c191660019190911b1790565b81516001600160401b03811115611d5957611d5961191f565b611d6d81611d678454611bff565b84611ce0565b602080601f831160018114611d9c5760008415611d8a5750858301515b611d948582611d2b565b865550610a27565b600085815260208120601f198616915b82811015611dcb57888601518255948401946001909101908401611dac565b5085821015611de95787850151600019600388901b60f8161c191681555b5050505050600190811b01905550565b600061ffff808816835280871660208401525084604083015260806060830152611e27608083018486611c49565b979650505050505050565b61ffff86168152608060208201526000611e50608083018688611c49565b6001600160401b0394909416604083015250606001529392505050565b6001600160401b03831115611e8457611e8461191f565b611e9883611e928354611bff565b83611ce0565b6000601f841160018114611ec65760008515611eb45750838201355b611ebe8682611d2b565b845550610782565b600083815260209020601f19861690835b82811015611ef75786850135825560209485019460019092019101611ed7565b5086821015611f145760001960f88860031b161c19848701351681555b505060018560011b0183555050505050565b6000611f346119e484611965565b9050828152838383011115611f4857600080fd5b6108c6836020830184611a2c565b600082601f830112611f6757600080fd5b6108c683835160208501611f26565b600060208284031215611f8857600080fd5b81516001600160401b03811115611f9e57600080fd5b611faa84828501611f56565b949350505050565b61ffff85168152608060208201526000611fcf6080830186611a50565b6001600160401b03851660408401528281036060840152611e278185611a50565b60008251612002818460208701611a2c565b9190910192915050565b60006001600160401b038211156120255761202561191f565b5060051b60200190565b600082601f83011261204057600080fd5b815160206120506119e48361200c565b82815260059290921b8401810191818101908684111561206f57600080fd5b8286015b8481101561208a5780518352918301918301612073565b509695505050505050565b600082601f8301126120a657600080fd5b815160206120b66119e48361200c565b82815260059290921b840181019181810190868411156120d557600080fd5b8286015b8481101561208a5780516001600160401b038111156120f85760008081fd5b8701603f8101891361210a5760008081fd5b61211b898683015160408401611f26565b8452509183019183016120d9565b600082601f83011261213a57600080fd5b8151602061214a6119e48361200c565b82815260059290921b8401810191818101908684111561216957600080fd5b8286015b8481101561208a5780516001600160401b0381111561218c5760008081fd5b61219a8986838b0101611f56565b84525091830191830161216d565b600080600080608085870312156121be57600080fd5b84516001600160401b03808211156121d557600080fd5b818701915087601f8301126121e957600080fd5b815160206121f96119e48361200c565b82815260059290921b8401810191818101908b84111561221857600080fd5b948201945b8386101561223f57855161223081611ad6565b8252948201949082019061221d565b918a015191985090935050508082111561225857600080fd5b6122648883890161202f565b9450604087015191508082111561227a57600080fd5b61228688838901612095565b9350606087015191508082111561229c57600080fd5b506122a987828801612129565b91505092959194509250565b634e487b7160e01b600052603260045260246000fd5b6000600182016122dd576122dd611c90565b5060010190565b80820180821115611cb957611cb9611c90565b6001600160e01b031983168152815160009061231a816004850160208701611a2c565b91909101600401939250505056fea2646970667358221220aa727ae1ca124ca0d61dfcde99c8191a71e5b155b6799132d70219e730d69c0364736f6c63430008110033",
  "devdoc": {
    "details": "The owner of this contract controls LayerZero configuration. When used in production the owner should be set to a Timelock or this contract itself  This implementation is non-blocking meaning the failed messages will not block the future messages from the source. For the blocking behavior derive the contract from LzApp",
    "kind": "dev",
    "methods": {
      "owner()": {
        "details": "Returns the address of the current owner."
      },
      "renounceOwnership()": {
        "details": "Leaves the contract without owner. It will not be possible to call `onlyOwner` functions anymore. Can only be called by the current owner. NOTE: Renouncing ownership will leave the contract without an owner, thereby removing any functionality that is only available to the owner."
      },
      "transferOwnership(address)": {
        "details": "Transfers ownership of the contract to a new account (`newOwner`). Can only be called by the current owner."
      }
    },
    "title": "Omnichain Governance Executor",
    "version": 1
  },
  "userdoc": {
    "kind": "user",
    "methods": {},
    "notice": "Executes the proposal transactions sent from the main chain",
    "version": 1
  },
  "storageLayout": {
    "storage": [
      {
        "astId": 2960,
        "contract": "contracts/OmnichainGovernanceExecutor.sol:OmnichainGovernanceExecutor",
        "label": "_owner",
        "offset": 0,
        "slot": "0",
        "type": "t_address"
      },
      {
        "astId": 440,
        "contract": "contracts/OmnichainGovernanceExecutor.sol:OmnichainGovernanceExecutor",
        "label": "trustedRemoteLookup",
        "offset": 0,
        "slot": "1",
        "type": "t_mapping(t_uint16,t_bytes_storage)"
      },
      {
        "astId": 446,
        "contract": "contracts/OmnichainGovernanceExecutor.sol:OmnichainGovernanceExecutor",
        "label": "minDstGasLookup",
        "offset": 0,
        "slot": "2",
        "type": "t_mapping(t_uint16,t_mapping(t_uint16,t_uint256))"
      },
      {
        "astId": 450,
        "contract": "contracts/OmnichainGovernanceExecutor.sol:OmnichainGovernanceExecutor",
        "label": "payloadSizeLimitLookup",
        "offset": 0,
        "slot": "3",
        "type": "t_mapping(t_uint16,t_uint256)"
      },
      {
        "astId": 452,
        "contract": "contracts/OmnichainGovernanceExecutor.sol:OmnichainGovernanceExecutor",
        "label": "precrime",
        "offset": 0,
        "slot": "4",
        "type": "t_address"
      },
      {
        "astId": 989,
        "contract": "contracts/OmnichainGovernanceExecutor.sol:OmnichainGovernanceExecutor",
        "label": "failedMessages",
        "offset": 0,
        "slot": "5",
        "type": "t_mapping(t_uint16,t_mapping(t_bytes_memory_ptr,t_mapping(t_uint64,t_bytes32)))"
      },
      {
        "astId": 3076,
        "contract": "contracts/OmnichainGovernanceExecutor.sol:OmnichainGovernanceExecutor",
        "label": "_status",
        "offset": 0,
        "slot": "6",
        "type": "t_uint256"
      }
    ],
    "types": {
      "t_address": {
        "encoding": "inplace",
        "label": "address",
        "numberOfBytes": "20"
      },
      "t_bytes32": {
        "encoding": "inplace",
        "label": "bytes32",
        "numberOfBytes": "32"
      },
      "t_bytes_memory_ptr": {
        "encoding": "bytes",
        "label": "bytes",
        "numberOfBytes": "32"
      },
      "t_bytes_storage": {
        "encoding": "bytes",
        "label": "bytes",
        "numberOfBytes": "32"
      },
      "t_mapping(t_bytes_memory_ptr,t_mapping(t_uint64,t_bytes32))": {
        "encoding": "mapping",
        "key": "t_bytes_memory_ptr",
        "label": "mapping(bytes => mapping(uint64 => bytes32))",
        "numberOfBytes": "32",
        "value": "t_mapping(t_uint64,t_bytes32)"
      },
      "t_mapping(t_uint16,t_bytes_storage)": {
        "encoding": "mapping",
        "key": "t_uint16",
        "label": "mapping(uint16 => bytes)",
        "numberOfBytes": "32",
        "value": "t_bytes_storage"
      },
      "t_mapping(t_uint16,t_mapping(t_bytes_memory_ptr,t_mapping(t_uint64,t_bytes32)))": {
        "encoding": "mapping",
        "key": "t_uint16",
        "label": "mapping(uint16 => mapping(bytes => mapping(uint64 => bytes32)))",
        "numberOfBytes": "32",
        "value": "t_mapping(t_bytes_memory_ptr,t_mapping(t_uint64,t_bytes32))"
      },
      "t_mapping(t_uint16,t_mapping(t_uint16,t_uint256))": {
        "encoding": "mapping",
        "key": "t_uint16",
        "label": "mapping(uint16 => mapping(uint16 => uint256))",
        "numberOfBytes": "32",
        "value": "t_mapping(t_uint16,t_uint256)"
      },
      "t_mapping(t_uint16,t_uint256)": {
        "encoding": "mapping",
        "key": "t_uint16",
        "label": "mapping(uint16 => uint256)",
        "numberOfBytes": "32",
        "value": "t_uint256"
      },
      "t_mapping(t_uint64,t_bytes32)": {
        "encoding": "mapping",
        "key": "t_uint64",
        "label": "mapping(uint64 => bytes32)",
        "numberOfBytes": "32",
        "value": "t_bytes32"
      },
      "t_uint16": {
        "encoding": "inplace",
        "label": "uint16",
        "numberOfBytes": "2"
      },
      "t_uint256": {
        "encoding": "inplace",
        "label": "uint256",
        "numberOfBytes": "32"
      },
      "t_uint64": {
        "encoding": "inplace",
        "label": "uint64",
        "numberOfBytes": "8"
      }
    }
  }
}